:1000000071C00000FFC1000055C20000B6C1000071
:1000100099C5000086C0000084C0000082C00000B6
:1000200080C000007EC000007CC000007AC00000DC
:1000300078C0000076C0000074C0000072C00000EC
:1000400070C000006EC000006CC000006AC00000FC
:1000500068C0000066C0000064C0000062C000000C
:1000600060C000005EC000005CC000005AC000001C
:1000700058C0000081C2000054C0000052C00000FF
:1000800091C500004EC000004CC000004AC00000F6
:1000900048C0000046C0000044C0000042C000004C
:1000A00040C000003EC000003CC000003AC000005C
:1000B00038C0000036C0000034C0000032C000006C
:1000C00030C000002EC000002CC000002AC000007C
:1000D00028C0000026C0000024C0000022C000008C
:1000E00020C0000011241FBECFEFD1E2DEBFCDBF84
:1000F00000E00CBF12E0A0E0B2E0E8EEFEE000E0BD
:100100000BBF02C007900D92AA33B107D9F722E0C6
:10011000AAE3B2E001C01D92A535B207E1F7E1D331
:10012000E1C6A1C187B1807F87B988B1806288B9F3
:1001300088B18F7B88B982E08A95F1F700C088B1D9
:10014000806888B992E09A95F1F700C086B18295EF
:10015000807F92E09A95F1F700C098B19F7798B9A7
:1001600095E09A95F1F7000098B1906898B992E0FF
:100170009A95F1F700C096B1807892E09A95F1F7E0
:1001800000C098B19F7798B995E09A95F1F7000073
:100190008111D5CF88B18F7D88B987B18F6087B93C
:1001A0000895282F22952F708F70611104C098B187
:1001B0009F7B98B903C098B1906498B992E09A95E2
:1001C000F1F700C098B1906898B998B1907F922BE0
:1001D00098B995E09A95F1F7000098B19F7798B992
:1001E00095E09A95F1F7000098B1906898B998B1A8
:1001F000907F892B88B985E08A95F1F7000088B156
:100200008F7788B995E09A95F1F700008BCF089524
:10021000CF93C82F2FEF86E791E021508040904088
:10022000E1F700C0000087B18F6087B987B18068AF
:1002300087B987B1806487B987B1806287B988B18F
:10024000807F88B988B18F7788B988B18F7D88B968
:1002500088B18F7B88B900C000C0000088B1806879
:1002600088B988B1826088B925E02A95F1F7000045
:1002700088B18F7788B985E08A95F1F7000052DF61
:1002800060E08C2F8C608DDF60E088E28ADFCF91A8
:100290000895CF93DF93EC0103C061E082DF2196E4
:1002A00088818111FACFDF91CF910895EF92FF926B
:1002B0000F931F93CF93DF9300D01F921F92CDB760
:1002C000DEB77B01FE01319625E0DF011D922A9504
:1002D000E9F724E030E00EC06AE070E0BBD4E1E072
:1002E000F0E0EC0FFD1FE20FF31F8083862F972FA6
:1002F00021503109009781F7BFEFEB16FB0681F41F
:1003000003C00F5F1F4F02C000E010E0E1E0F0E02B
:10031000EC0FFD1FE00FF11F2081222391F304C099
:1003200005E010E00E191F09992384F461E08DE2C5
:1003300038DF0CC0E1E0F0E0EC0FFD1FE00FF11F33
:10034000808161E0805D2DDF0F5F1F4F053011055B
:100350008CF30F900F900F900F900F90DF91CF9133
:100360001F910F91FF90EF900895883228F461114A
:10037000806460E0806815CF08951F920F920FB6D9
:100380000F9211240BB60F928F939F93EF93FF93CD
:100390004A9B0DC08FEF93E09093470280934602F3
:1003A000EAE7F0E080818064808310924C02FF9144
:1003B000EF919F918F910F900BBE0F900FBE0F90FA
:1003C0001F901895E1E8F0E020812860208328EE56
:1003D00033E03093890020938800109285001092BA
:1003E000840026B3226026BB20E030E007C0B19B2A
:1003F00005C046B3426046BB2F5F3F4F2817390701
:10040000B4F308951F920F920FB60F9211240BB6FA
:100410000F922F933F934F935F936F937F938F939D
:100420009F93AF93BF93EF93FF9384E190E0CADF74
:100430004899FECF84E190E0C5DF84E080934C02D0
:10044000FF91EF91BF91AF919F918F917F916F91AC
:100450005F914F913F912F910F900BBE0F900FBE68
:100460000F901F9018951F920F920FB60F921124A4
:1004700085E588B988EE93E0A5DF18B884EF91E0B0
:10048000A1DFF6CFE1E9F0E08081886080838081A0
:100490008560808384E294EF909399008093980024
:1004A0001092950010929400E1E7F0E08081826064
:1004B000808308951F920F920FB60F9211240BB6EE
:1004C0000F922F933F934F935F936F937F938F93ED
:1004D0009F93AF93BF93EF93FF9384E190E072DF1C
:1004E000499BFECF84E190E06DDFCCDFFF91EF917F
:1004F000BF91AF919F918F917F916F915F914F913C
:100500003F912F910F900BBE0F900FBE0F901F9039
:100510001895FC0111821082FB011182108208954E
:10052000CF93DF93EC0186E090E0BBD3998388837F
:10053000FC0115821482DF91CF910895DB01ED91CA
:10054000FC91309761F0DA018D919C911197958320
:1005500084838D919C91FB01918380830895DA01BE
:100560002D913C911197FC01318320838D919C91B9
:10057000DB018D939C9308951F920F920FB60F92FB
:1005800011240BB60F922F933F934F935F936F936A
:100590007F938F939F93AF93BF93EF93FF9320919C
:1005A0007800309179008091460290914702281797
:1005B000390740F480917800909179009093470238
:1005C000809346024A9B06C0EAE7F0E0808180649F
:1005D000808383C08DE492E0A3DF209106023091F6
:1005E000070280914602909147028217930794F088
:1005F00020910802309109028091460290914702B1
:10060000281739073CF0E0914D02F0914E02138219
:1006100012825CC020910A0230910B028091460246
:100620009091470282179307A4F020910C02309119
:100630000D028091460290914702281739074CF02D
:10064000E0914D02F0914E0281E090E0938382832D
:100650003DC020910E0230910F0280914602909190
:10066000470282179307A4F02091100230911102E3
:100670008091460290914702281739074CF0E0918B
:100680004D02F0914E0282E090E0938382831EC07F
:1006900020911202309113028091460290914702FC
:1006A000821793079CF020911402309115028091DB
:1006B0004602909147022817390744F0E0914D0215
:1006C000F0914E0283E090E0938382834DE452E008
:1006D00068E472E08AE492E031DFFF91EF91BF912C
:1006E000AF919F918F917F916F915F914F913F91CA
:1006F0002F910F900BBE0F900FBE0F901F9018956B
:10070000CF93DF93FC0180819181DA018D939C93DB
:10071000A081B181109789F0EB0188819981A81798
:10072000B90729F4118210821982188206C0149622
:100730008D919C91159791838083DF91CF9108953E
:10074000DC01ED91FC9180E090E004C00196048012
:10075000F581E02D3097D1F70895EF92FF920F9336
:100760001F93CF93DF937C018B01C0E0D0E03CC0AE
:1007700080914202909143020196909343028093AC
:1007800042028091420290914302049721F4109218
:10079000430210924202E0914202F0914302EE0FB6
:1007A000FF1FEA5EFD4F808182B9C8010BDE2196F2
:1007B00084E6E816F10451F4CB30D10514F401506D
:1007C0001109CA35D10514F00F5F1F4F82E3E816F7
:1007D000F10451F4CB30D10514F401501109C832A1
:1007E000D10514F00F5F1F4FCE15DF050CF4C0CFFD
:1007F000DF91CF911F910F91FF90EF900895EF92AD
:10080000FF920F931F93CF93DF937C018B01C0E086
:10081000D0E03EC0809142029091430201979093B4
:1008200043028093420280914202909143020196DA
:1008300031F483E090E09093430280934202E09190
:100840004202F0914302EE0FFF1FEA5EFD4F8081EE
:1008500082B9C801B7DD219684E6E816F10451F4A7
:10086000CB30D10514F401501109CA35D10514F06B
:100870000F5F1F4F22E3E216F10451F4CB30D10594
:1008800014F401501109CA35D10514F00F5F1F4F40
:10089000CE15DF050CF4BECFDF91CF911F910F91E4
:1008A000FF90EF90089505C064E170E081E090E072
:1008B000A6DF0699F9CF6AE070E08AE090E09FCF6A
:1008C000089584B1806884B985B5836085BD84B599
:1008D000836884BD08958EE085B908958FE085B959
:1008E0000895CF93DF93E1E6F0E080E8808381E034
:1008F0008083E1E8F0E080818260808310924C0286
:10090000F89480EF8AB99FEF97B92FE321B994B992
:1009100080930A01E9E6F0E0808183608083808132
:100920008860808380818063808380818068808309
:100930008DB38F608DBBEAE7F0E0808180688083B3
:10094000808188608083ECE7F0E080818064808330
:100950007894109245021092440210924E02109226
:100960004D0268E472E08AE492E0D3DD9CDF1092ED
:10097000500210924F02A5DFAEDF8FE587BD809158
:100980004C028330A9F028F4813051F0823069F0B4
:10099000F6CF843009F47AC0853009F4CDC0EFCFAA
:1009A00081E088B910924C02EACF10924C02E7CF56
:1009B00010924C0268E472E08AE492E0C1DE892B76
:1009C00021F489DF10924C02DACF44E452E068E46B
:1009D00072E08AE492E094DE8CE390E0F3DC8091B4
:1009E0004F02909150020496E0914402F09145022A
:1009F00022813381821B930B64E070E02BD1823023
:100A0000910559F08330910571F0019789F460E107
:100A100070E082E390E0F3DE0BC060E170E084E61A
:100A200090E09BDE05C060E170E082E390E095DE3F
:100A30008091440290914502DC011296ED91FC9167
:100A40001397F0935002E0934F02EE0FFF1FE65C06
:100A5000FD4F208131812F5F3F4F31832083B9D1FA
:100A600080914C02833039F480EF80930B0133DFA7
:100A70008EE190E0A7DC68E472E08AE492E060DE58
:100A8000892B11F48FE587BD26DF79CF80911E0277
:100A900090911F02892B69F481E090E090931F02EE
:100AA00080931E0218DF60E081E07BDB10924C0235
:100AB00066CF10921F0210921E0210DF83E0A8DBA7
:100AC00060E081E06EDB80E292E0E3DB60E082E008
:100AD0004CDCCAE3D2E062E070E088819981E6DB19
:100AE00060E086E042DC62E070E08A819B81DEDBD0
:100AF00060E08AE03ADC62E070E08C819D81D6DBC8
:100B000060E08EE032DC62E070E08E819F81CEDBBF
:100B100061E080E02ADC8FE292E0BBDB61E08BE009
:100B200024DC68E472E08AE492E00ADE61E070E0CE
:100B3000BDDB10924C0223CFF89480E090E0DF916F
:100B4000CF9108951F920F920FB60F9211240BB6FA
:100B50000F922F933F934F935F936F937F938F9356
:100B60009F93AF93BF93EF93FF934B9906C0B6DE6D
:100B70008CED87BD83E080934C02FF91EF91BF9194
:100B8000AF919F918F917F916F915F914F913F9125
:100B90002F910F900BBE0F900FBE0F901F901895C6
:100BA00015B808951F920F920FB60F9211240BB62D
:100BB0000F922F933F934F935F936F937F938F93F6
:100BC0009F93AF93BF93CF93DF93EF93FF93E8DFB0
:100BD00083E01EDB60E081E0E4DA80E292E059DB52
:100BE00060E082E0C2DBCAE3D2E062E070E08881CC
:100BF00099815CDB60E086E0B8DB62E070E08A81CE
:100C00009B8154DB60E08AE0B0DB62E070E08C81C5
:100C10009D814CDB60E08EE0A8DB62E070E08E81BD
:100C20009F8144DB85E080934C02FF91EF91DF913F
:100C3000CF91BF91AF919F918F917F916F915F9174
:100C40004F913F912F910F900BBE0F900FBE0F90C1
:100C50001F90189597FB072E16F4009406D077FD89
:100C600008D00BD007FC05D03EF4909581959F4F9E
:100C70000895709561957F4F0895AA1BBB1B51E1A4
:100C800007C0AA1FBB1FA617B70710F0A61BB70BFC
:100C9000881F991F5A95A9F780959095BC01CD01A1
:100CA00008950F931F93CF93DF938230910510F433
:100CB00082E090E0E0915302F091540220E030E0B5
:100CC000A0E0B0E0309719F1408151810281138199
:100CD00048175907C8F08417950769F4109731F041
:100CE00012960C93129713961C9327C000935302ED
:100CF0001093540222C02115310519F042175307F1
:100D000018F49A01BD01EF01DF01F801DBCF2115D5
:100D10003105F9F0281B390B2430310580F48A8124
:100D20009B816115710521F0FB019383828304C0CF
:100D30009093540280935302FE01329644C0FE0108
:100D4000E20FF31F81939193225031093983288355
:100D50003AC02091510230915202232B41F420914C
:100D600002023091030230935202209351022091EB
:100D70000002309101022115310541F42DB73EB733
:100D80004091040250910502241B350BE091510261
:100D9000F0915202E217F307A0F42E1B3F0B281725
:100DA000390778F0AC014E5F5F4F2417350748F0E4
:100DB0004E0F5F1F509352024093510281939193C3
:100DC00002C0E0E0F0E0CF01DF91CF911F910F91E1
:100DD0000895CF93DF93009709F481C0FC01329707
:100DE00013821282A0915302B0915402109781F4A1
:100DF00020813181820F931F209151023091520244
:100E00002817390751F5F0935202E093510267C059
:100E1000ED0120E030E0CE17DF0740F44A815B812E
:100E20009E0141155105F1F0EA01F5CFD383C2834C
:100E300040815181840F951FC817D90759F48881C3
:100E40009981840F951F0296918380838A819B816B
:100E5000938382832115310529F4F0935402E093A2
:100E600053023DC0E901FB83EA8349915991C40FC4
:100E7000D51FEC17FD0761F480819181840F951FC8
:100E80000296E90199838883828193819B838A8377
:100E9000E0E0F0E012968D919C911397009719F085
:100EA000FD01DC01F7CF8D919C9111979D012E5F83
:100EB0003F4F820F931F2091510230915202281709
:100EC000390769F4309729F41092540210925302B2
:100ED00002C013821282B0935202A0935102DF919A
:080EE000CF910895F894FFCFB3
:100EE800000055022000B503E803010006012803AD
:100EF800B403070127031B001D002D002B00010070
:100F0800423A2020413A2020573A2020533A0055AF
:0A0F18006E2D536F727465643A0089
:00000001FF
